{
  "contractName": "Auction",
  "abi": [
    {
      "constant": true,
      "inputs": [],
      "name": "numNotaries",
      "outputs": [
        {
          "name": "",
          "type": "uint256"
        }
      ],
      "payable": false,
      "stateMutability": "view",
      "type": "function"
    },
    {
      "constant": true,
      "inputs": [
        {
          "name": "",
          "type": "uint256"
        }
      ],
      "name": "bidderAddresses",
      "outputs": [
        {
          "name": "",
          "type": "address"
        }
      ],
      "payable": false,
      "stateMutability": "view",
      "type": "function"
    },
    {
      "constant": true,
      "inputs": [
        {
          "name": "",
          "type": "uint256"
        }
      ],
      "name": "notaryAddresses",
      "outputs": [
        {
          "name": "",
          "type": "address"
        }
      ],
      "payable": false,
      "stateMutability": "view",
      "type": "function"
    },
    {
      "constant": true,
      "inputs": [],
      "name": "auctioneerAddress",
      "outputs": [
        {
          "name": "",
          "type": "address"
        }
      ],
      "payable": false,
      "stateMutability": "view",
      "type": "function"
    },
    {
      "constant": true,
      "inputs": [],
      "name": "numBidders",
      "outputs": [
        {
          "name": "",
          "type": "uint256"
        }
      ],
      "payable": false,
      "stateMutability": "view",
      "type": "function"
    },
    {
      "anonymous": false,
      "inputs": [
        {
          "indexed": true,
          "name": "notaryAddress",
          "type": "address"
        },
        {
          "indexed": false,
          "name": "index",
          "type": "uint256"
        },
        {
          "indexed": false,
          "name": "bidderIndex",
          "type": "uint256"
        }
      ],
      "name": "LogNewNotary",
      "type": "event"
    },
    {
      "anonymous": false,
      "inputs": [
        {
          "indexed": true,
          "name": "bidderAddress",
          "type": "address"
        },
        {
          "indexed": false,
          "name": "index",
          "type": "uint256"
        }
      ],
      "name": "LogNewBidder",
      "type": "event"
    },
    {
      "constant": false,
      "inputs": [
        {
          "name": "addressAuc",
          "type": "address"
        },
        {
          "name": "_q",
          "type": "uint256"
        },
        {
          "name": "_M",
          "type": "uint256[]"
        }
      ],
      "name": "registerAuctioneer",
      "outputs": [
        {
          "name": "",
          "type": "bool"
        }
      ],
      "payable": false,
      "stateMutability": "nonpayable",
      "type": "function"
    },
    {
      "constant": true,
      "inputs": [
        {
          "name": "notaryAddress",
          "type": "address"
        }
      ],
      "name": "isNotary",
      "outputs": [
        {
          "name": "",
          "type": "bool"
        }
      ],
      "payable": false,
      "stateMutability": "view",
      "type": "function"
    },
    {
      "constant": false,
      "inputs": [
        {
          "name": "notaryAddress",
          "type": "address"
        }
      ],
      "name": "registerNotaries",
      "outputs": [
        {
          "name": "",
          "type": "bool"
        }
      ],
      "payable": false,
      "stateMutability": "nonpayable",
      "type": "function"
    },
    {
      "constant": true,
      "inputs": [
        {
          "name": "bidderAddress",
          "type": "address"
        }
      ],
      "name": "isBidder",
      "outputs": [
        {
          "name": "",
          "type": "bool"
        }
      ],
      "payable": false,
      "stateMutability": "view",
      "type": "function"
    },
    {
      "constant": false,
      "inputs": [
        {
          "name": "bidderAddress",
          "type": "address"
        },
        {
          "name": "preferredItems",
          "type": "uint256[]"
        },
        {
          "name": "valuation",
          "type": "uint256[2]"
        }
      ],
      "name": "registerbidders",
      "outputs": [
        {
          "name": "",
          "type": "bool"
        }
      ],
      "payable": false,
      "stateMutability": "nonpayable",
      "type": "function"
    },
    {
      "constant": false,
      "inputs": [
        {
          "name": "notaryAddress",
          "type": "address"
        }
      ],
      "name": "assignBidder",
      "outputs": [
        {
          "name": "",
          "type": "uint256[]"
        }
      ],
      "payable": false,
      "stateMutability": "nonpayable",
      "type": "function"
    },
    {
      "constant": false,
      "inputs": [
        {
          "name": "vals",
          "type": "uint256[100][100]"
        }
      ],
      "name": "sendValues",
      "outputs": [
        {
          "name": "",
          "type": "bool"
        }
      ],
      "payable": false,
      "stateMutability": "nonpayable",
      "type": "function"
    },
    {
      "constant": true,
      "inputs": [
        {
          "name": "data",
          "type": "address[]"
        }
      ],
      "name": "sort",
      "outputs": [
        {
          "name": "",
          "type": "address[]"
        }
      ],
      "payable": false,
      "stateMutability": "view",
      "type": "function"
    },
    {
      "constant": false,
      "inputs": [
        {
          "name": "vals",
          "type": "uint256[100][100]"
        }
      ],
      "name": "whoIsTheWinner",
      "outputs": [
        {
          "name": "",
          "type": "address[]"
        }
      ],
      "payable": false,
      "stateMutability": "nonpayable",
      "type": "function"
    }
  ],
  "bytecode": "0x60806040526000600155600060025534801561001a57600080fd5b50611b028061002a6000396000f3006080604052600436106100d0576000357c0100000000000000000000000000000000000000000000000000000000900463ffffffff16806308454750146100d5578063128424a71461010057806315d6e61a146101bb57806319fde1f6146102885780632fb3c48f146102e35780633e36c859146103505780634d509bd8146103bd5780637caa5b9f1461049f578063c65eb43a14610547578063caceffcc146105a2578063cb1205261461063a578063d13a15f3146106df578063f13eed9714610736578063fb4cd8e214610791575b600080fd5b3480156100e157600080fd5b506100ea6107bc565b6040518082815260200191505060405180910390f35b34801561010c57600080fd5b50610164600480360381019080803590602001908201803590602001908080602002602001604051908101604052809392919081815260200183836020028082843782019150505050505091929192905050506107c2565b6040518080602001828103825283818151815260200191508051906020019060200280838360005b838110156101a757808201518184015260208101905061018c565b505050509050019250505060405180910390f35b3480156101c757600080fd5b5061026e600480360381019080803573ffffffffffffffffffffffffffffffffffffffff1690602001909291908035906020019082018035906020019080806020026020016040519081016040528093929190818152602001838360200280828437820191505050505050919291929080604001906002806020026040519081016040528092919082600260200280828437820191505050505091929192905050506107dc565b604051808215151515815260200191505060405180910390f35b34801561029457600080fd5b506102c9600480360381019080803573ffffffffffffffffffffffffffffffffffffffff1690602001909291905050506109ee565b604051808215151515815260200191505060405180910390f35b3480156102ef57600080fd5b5061030e60048036038101908080359060200190929190505050610ab8565b604051808273ffffffffffffffffffffffffffffffffffffffff1673ffffffffffffffffffffffffffffffffffffffff16815260200191505060405180910390f35b34801561035c57600080fd5b5061037b60048036038101908080359060200190929190505050610af6565b604051808273ffffffffffffffffffffffffffffffffffffffff1673ffffffffffffffffffffffffffffffffffffffff16815260200191505060405180910390f35b3480156103c957600080fd5b50610448600480360381019080806204e2000190606480602002604051908101604052809291906000905b82821015610437578382610c80020160648060200260405190810160405280929190826064602002808284378201915050505050815260200190600101906103f4565b505050509192919290505050610b34565b6040518080602001828103825283818151815260200191508051906020019060200280838360005b8381101561048b578082015181840152602081019050610470565b505050509050019250505060405180910390f35b3480156104ab57600080fd5b5061052d600480360381019080803573ffffffffffffffffffffffffffffffffffffffff1690602001909291908035906020019092919080359060200190820180359060200190808060200260200160405190810160405280939291908181526020018383602002808284378201915050505050509192919290505050611082565b604051808215151515815260200191505060405180910390f35b34801561055357600080fd5b50610588600480360381019080803573ffffffffffffffffffffffffffffffffffffffff1690602001909291905050506110ed565b604051808215151515815260200191505060405180910390f35b3480156105ae57600080fd5b506105e3600480360381019080803573ffffffffffffffffffffffffffffffffffffffff1690602001909291905050506112e6565b6040518080602001828103825283818151815260200191508051906020019060200280838360005b8381101561062657808201518184015260208101905061060b565b505050509050019250505060405180910390f35b34801561064657600080fd5b506106c5600480360381019080806204e2000190606480602002604051908101604052809291906000905b828210156106b4578382610c8002016064806020026040519081016040528092919082606460200280828437820191505050505081526020019060010190610671565b5050505091929192905050506115c9565b604051808215151515815260200191505060405180910390f35b3480156106eb57600080fd5b506106f4611660565b604051808273ffffffffffffffffffffffffffffffffffffffff1673ffffffffffffffffffffffffffffffffffffffff16815260200191505060405180910390f35b34801561074257600080fd5b50610777600480360381019080803573ffffffffffffffffffffffffffffffffffffffff169060200190929190505050611685565b604051808215151515815260200191505060405180910390f35b34801561079d57600080fd5b506107a661174f565b6040518082815260200191505060405180910390f35b60015481565b60606107d48260006001855103611755565b819050919050565b60008015156107ea856109ee565b151514156109e257600160088590806001815401808255809150509060018203906000526020600020016000909192909190916101000a81548173ffffffffffffffffffffffffffffffffffffffff021916908373ffffffffffffffffffffffffffffffffffffffff16021790555003600760008673ffffffffffffffffffffffffffffffffffffffff1673ffffffffffffffffffffffffffffffffffffffff1681526020019081526020016000206000018190555082600960008673ffffffffffffffffffffffffffffffffffffffff1673ffffffffffffffffffffffffffffffffffffffff16815260200190815260200160002060000190805190602001906108f6929190611a17565b5081600960008673ffffffffffffffffffffffffffffffffffffffff1673ffffffffffffffffffffffffffffffffffffffff168152602001908152602001600020600101906002610948929190611a64565b508373ffffffffffffffffffffffffffffffffffffffff167f6d3eb363ccedef7b6f1b38ec975b621fc6936a8858b21ded93879af06d2fa6fa600760008773ffffffffffffffffffffffffffffffffffffffff1673ffffffffffffffffffffffffffffffffffffffff168152602001908152602001600020600001546040518082815260200191505060405180910390a2600190506109e7565b600090505b9392505050565b6000806008805490501415610a065760009050610ab3565b8173ffffffffffffffffffffffffffffffffffffffff166008600760008573ffffffffffffffffffffffffffffffffffffffff1673ffffffffffffffffffffffffffffffffffffffff16815260200190815260200160002060000154815481101515610a6e57fe5b9060005260206000200160009054906101000a900473ffffffffffffffffffffffffffffffffffffffff1673ffffffffffffffffffffffffffffffffffffffff161490505b919050565b600881815481101515610ac757fe5b906000526020600020016000915054906101000a900473ffffffffffffffffffffffffffffffffffffffff1681565b600681815481101515610b0557fe5b906000526020600020016000915054906101000a900473ffffffffffffffffffffffffffffffffffffffff1681565b60606000806000806000806000610bd06008805480602002602001604051908101604052809291908181526020018280548015610bc657602002820191906000526020600020905b8160009054906101000a900473ffffffffffffffffffffffffffffffffffffffff1673ffffffffffffffffffffffffffffffffffffffff1681526020019060010190808311610b7c575b50505050506107c2565b506008805490509650600095505b600287811515610bea57fe5b04861015610d31578560018803039450600885815481101515610c0957fe5b9060005260206000200160009054906101000a900473ffffffffffffffffffffffffffffffffffffffff16600887815481101515610c4357fe5b9060005260206000200160009054906101000a900473ffffffffffffffffffffffffffffffffffffffff16600888815481101515610c7d57fe5b906000526020600020016000600889815481101515610c9857fe5b9060005260206000200160008491906101000a81548173ffffffffffffffffffffffffffffffffffffffff021916908373ffffffffffffffffffffffffffffffffffffffff1602179055508391906101000a81548173ffffffffffffffffffffffffffffffffffffffff021916908373ffffffffffffffffffffffffffffffffffffffff16021790555050508580600101965050610bde565b600095505b86861015610fec5760076000600888815481101515610d5157fe5b9060005260206000200160009054906101000a900473ffffffffffffffffffffffffffffffffffffffff1673ffffffffffffffffffffffffffffffffffffffff1673ffffffffffffffffffffffffffffffffffffffff168152602001908152602001600020600001549250600084805490501415610e995761271a600887815481101515610ddb57fe5b9060005260206000200160009054906101000a900473ffffffffffffffffffffffffffffffffffffffff1690806001815401808255809150509060018203906000526020600020016000909192909190916101000a81548173ffffffffffffffffffffffffffffffffffffffff021916908373ffffffffffffffffffffffffffffffffffffffff1602179055505083839080600181540180825580915050906001820390600052602060002001600090919290919091505550610fdf565b60019150600090505b8380549050811015610f09576001898583815481101515610ebf57fe5b9060005260206000200154606481101515610ed657fe5b602002015184606481101515610ee857fe5b60200201511415610efc5760009150610f09565b8080600101915050610ea2565b6001821415610fde5761271a600887815481101515610f2457fe5b9060005260206000200160009054906101000a900473ffffffffffffffffffffffffffffffffffffffff1690806001815401808255809150509060018203906000526020600020016000909192909190916101000a81548173ffffffffffffffffffffffffffffffffffffffff021916908373ffffffffffffffffffffffffffffffffffffffff16021790555050838390806001815401808255809150509060018203906000526020600020016000909192909190915055505b5b8580600101965050610d36565b61271a80548060200260200160405190810160405280929190818152602001828054801561106f57602002820191906000526020600020905b8160009054906101000a900473ffffffffffffffffffffffffffffffffffffffff1673ffffffffffffffffffffffffffffffffffffffff1681526020019060010190808311611025575b5050505050975050505050505050919050565b6000836000806101000a81548173ffffffffffffffffffffffffffffffffffffffff021916908373ffffffffffffffffffffffffffffffffffffffff1602179055508260038190555081600490805190602001906110e1929190611a17565b50600190509392505050565b60008015156110fb83611685565b151514156112dc57600160068390806001815401808255809150509060018203906000526020600020016000909192909190916101000a81548173ffffffffffffffffffffffffffffffffffffffff021916908373ffffffffffffffffffffffffffffffffffffffff16021790555003600560008473ffffffffffffffffffffffffffffffffffffffff1673ffffffffffffffffffffffffffffffffffffffff168152602001908152602001600020600001819055506000600560008473ffffffffffffffffffffffffffffffffffffffff1673ffffffffffffffffffffffffffffffffffffffff168152602001908152602001600020600101819055508173ffffffffffffffffffffffffffffffffffffffff167fb4635915a06c905981c8b50115946979cf76e886fcf7f1e336fdf929cf1f0932600560008573ffffffffffffffffffffffffffffffffffffffff1673ffffffffffffffffffffffffffffffffffffffff16815260200190815260200160002060000154600560008673ffffffffffffffffffffffffffffffffffffffff1673ffffffffffffffffffffffffffffffffffffffff16815260200190815260200160002060010154604051808381526020018281526020019250505060405180910390a2600190506112e1565b600090505b919050565b6060600080600560008573ffffffffffffffffffffffffffffffffffffffff1673ffffffffffffffffffffffffffffffffffffffff16815260200190815260200160002060000154915081600560008673ffffffffffffffffffffffffffffffffffffffff1673ffffffffffffffffffffffffffffffffffffffff168152602001908152602001600020600101819055506009600060088481548110151561138a57fe5b9060005260206000200160009054906101000a900473ffffffffffffffffffffffffffffffffffffffff1673ffffffffffffffffffffffffffffffffffffffff1673ffffffffffffffffffffffffffffffffffffffff1681526020019081526020016000206000019050806009600060088581548110151561140857fe5b9060005260206000200160009054906101000a900473ffffffffffffffffffffffffffffffffffffffff1673ffffffffffffffffffffffffffffffffffffffff1673ffffffffffffffffffffffffffffffffffffffff168152602001908152602001600020600101600081548110151561147e57fe5b9060005260206000200154908060018154018082558091505090600182039060005260206000200160009091929091909150555080600960006008858154811015156114c657fe5b9060005260206000200160009054906101000a900473ffffffffffffffffffffffffffffffffffffffff1673ffffffffffffffffffffffffffffffffffffffff1673ffffffffffffffffffffffffffffffffffffffff168152602001908152602001600020600101600181548110151561153c57fe5b90600052602060002001549080600181540180825580915050906001820390600052602060002001600090919290919091505550808054806020026020016040519081016040528092919081815260200182805480156115bb57602002820191906000526020600020905b8154815260200190600101908083116115a7575b505050505092505050919050565b60008060008091505b60088054905082101561165557600090505b6008805490508110156116485783826064811015156115ff57fe5b60200201518160648110151561161157fe5b6020020151600a8360648110151561162557fe5b606402018260648110151561163657fe5b018190555080806001019150506115e4565b81806001019250506115d2565b600192505050919050565b6000809054906101000a900473ffffffffffffffffffffffffffffffffffffffff1681565b600080600680549050141561169d576000905061174a565b8173ffffffffffffffffffffffffffffffffffffffff166006600560008573ffffffffffffffffffffffffffffffffffffffff1673ffffffffffffffffffffffffffffffffffffffff1681526020019081526020016000206000015481548110151561170557fe5b9060005260206000200160009054906101000a900473ffffffffffffffffffffffffffffffffffffffff1673ffffffffffffffffffffffffffffffffffffffff161490505b919050565b60025481565b60008060008492508391508183141561176d57611a0f565b6007600087600288880381151561178057fe5b05880181518110151561178f57fe5b9060200190602002015173ffffffffffffffffffffffffffffffffffffffff1673ffffffffffffffffffffffffffffffffffffffff1681526020019081526020016000206000015490505b81831315156119e6575b6002600a6007600089878151811015156117fa57fe5b9060200190602002015173ffffffffffffffffffffffffffffffffffffffff1673ffffffffffffffffffffffffffffffffffffffff1681526020019081526020016000206000015460648110151561184e57fe5b606402018260648110151561185f57fe5b015414156118745782806001019350506117e4565b5b6002600a8260648110151561188657fe5b6064020160076000898781518110151561189c57fe5b9060200190602002015173ffffffffffffffffffffffffffffffffffffffff1673ffffffffffffffffffffffffffffffffffffffff168152602001908152602001600020600001546064811015156118f057fe5b0154141561190657818060019003925050611875565b81831315156119e157858281518110151561191d57fe5b90602001906020020151868481518110151561193557fe5b90602001906020020151878581518110151561194d57fe5b906020019060200201888581518110151561196457fe5b9060200190602002018273ffffffffffffffffffffffffffffffffffffffff1673ffffffffffffffffffffffffffffffffffffffff168152508273ffffffffffffffffffffffffffffffffffffffff1673ffffffffffffffffffffffffffffffffffffffff16815250505082806001019350508180600190039250505b6117da565b818512156119fa576119f9868684611755565b5b83831215611a0e57611a0d868486611755565b5b5b505050505050565b828054828255906000526020600020908101928215611a53579160200282015b82811115611a52578251825591602001919060010190611a37565b5b509050611a609190611ab1565b5090565b828054828255906000526020600020908101928215611aa0579160200282015b82811115611a9f578251825591602001919060010190611a84565b5b509050611aad9190611ab1565b5090565b611ad391905b80821115611acf576000816000905550600101611ab7565b5090565b905600a165627a7a723058205893a88fcfd23f9c3e6c79b1de7e96e73774d3814d8c90070be97f38c7bbc9b30029",
  "source": "pragma solidity ^0.4.8;\n\ncontract Auction{\n    // Parameters of auction\n    address public auctioneerAddress;\n\n    uint public numNotaries = 0;\n    uint public numBidders = 0;\n    uint q;\n    uint[] M;\n\n    //  registering auctioneer\n    function registerAuctioneer(address addressAuc, uint _q, uint[] _M) public returns (bool){\n        auctioneerAddress = addressAuc;\n        q = _q;\n        M = _M;\n        return true;\n    }\n    \n    //  Notary registration work\n    struct notaryStruct {\n        uint index;\n        uint bidderIndex;\n    }\n    \n    mapping(address => notaryStruct) private notaryStructs;\n    address[] public notaryAddresses;\n    event LogNewNotary   (address indexed notaryAddress, uint index, uint bidderIndex);\n    \n    //  checking whether the notary is already registered or not\n    function isNotary(address notaryAddress) public constant returns(bool) {\n        if(notaryAddresses.length == 0) return false;\n        return (notaryAddresses[notaryStructs[notaryAddress].index] == notaryAddress);\n    }\n    \n    //  registering notaries\n    function registerNotaries(address notaryAddress) public returns (bool){\n        if(isNotary(notaryAddress) == false){\n            notaryStructs[notaryAddress].index = notaryAddresses.push(notaryAddress) - 1;\n            notaryStructs[notaryAddress].bidderIndex = 0;\n            LogNewNotary(\n                notaryAddress, \n                notaryStructs[notaryAddress].index,\n                notaryStructs[notaryAddress].bidderIndex);\n            return true;\n        } \n        else{\n            return false;\n        }\n        \n    }\n    \n    // Structure for a bid where (u, v) are\n    // the random representation of the ith item\n    // such that x = (u+v)modq\n    // And, where valuation_u, valuation_v are the \n    // random representation of valuation wi\n    struct Bid {\n        uint[] preferredItems;\n        uint[] valuation;\n    }\n    \n    struct bidderStruct {\n        uint index;\n    }\n    \n    mapping(address => bidderStruct) private bidderStructs;\n    \n    address[] public bidderAddresses;\n    mapping(address => Bid) private bids;\n    \n    //  registering bidders\n    event LogNewBidder   (address indexed bidderAddress, uint index);\n    \n    //  checking whether the bidder is already registered or not\n    function isBidder(address bidderAddress) public constant returns(bool) {\n        if(bidderAddresses.length == 0) return false;\n        return (bidderAddresses[bidderStructs[bidderAddress].index] == bidderAddress);\n    }\n    \n    //  registering bidders\n    function registerbidders(address bidderAddress, uint[] preferredItems, uint[2] valuation) public returns (bool){\n        if(isBidder(bidderAddress) == false){\n            bidderStructs[bidderAddress].index = bidderAddresses.push(bidderAddress) - 1;\n            bids[bidderAddress].preferredItems = preferredItems;\n            bids[bidderAddress].valuation = valuation;\n            \n            LogNewBidder(\n                bidderAddress, \n                bidderStructs[bidderAddress].index);\n            return true;\n        } \n        else{\n            return false;\n        }\n    }\n\n    //  assigning bidders to the notaries \n    function assignBidder(address notaryAddress) public returns (uint[]){\n        //  simple i to i mapping\n        uint ind;\n        ind = notaryStructs[notaryAddress].index;\n        notaryStructs[notaryAddress].bidderIndex = ind;\n        uint[] retArray = bids[bidderAddresses[ind]].preferredItems;\n        retArray.push(bids[bidderAddresses[ind]].valuation[0]);\n        retArray.push(bids[bidderAddresses[ind]].valuation[1]);\n        return (retArray);\n    }\n    \n   //  Auctioneer will now send the precomputed values which they got by contacting offline with eachother\n\n    uint[100][100] mainValues; //  considering there can be max 100 bidders\n    function sendValues(uint[100][100] vals) public returns (bool){\n        uint i;\n        uint j;\n        for(i=0;i<bidderAddresses.length;i++){\n            for(j=0;j<bidderAddresses.length;j++){\n                mainValues[i][j] = vals[i][j];\n            }\n        }\n        return true;\n    }\n    \n   \n    //  winner determination\n    \n    // Sort\n    function sort(address[] data) public constant returns(address[]) {\n       quickSort(data, int(0), int(data.length - 1));\n       return data;\n    }\n    \n    function quickSort(address[] memory arr, int left, int right) internal{\n        int i = left;\n        int j = right;\n        if(i==j) return;\n        uint pivot = bidderStructs[arr[uint(left + (right - left) / 2)]].index;\n        while (i <= j) {\n            while (mainValues[bidderStructs[arr[uint(i)]].index][pivot] == 2) i++;\n            while (mainValues[pivot][bidderStructs[arr[uint(i)]].index] == 2) j--;\n            if (i <= j) {\n                (arr[uint(i)], arr[uint(j)]) = (arr[uint(j)], arr[uint(i)]);\n                i++;\n                j--;\n            }\n        }\n        if (left < j)\n            quickSort(arr, left, j);\n        if (i < right)\n            quickSort(arr, i, right);\n        \n    }\n    \n    \n    \n    address[] winnerAddresses;\n    function whoIsTheWinner(uint [100][100] vals) public returns (address[]){\n        \n        sort(bidderAddresses);\n        uint len = bidderAddresses.length;\n        uint i;\n        uint j;\n        for (i=0; i<len/2; i++) {\n            j = len-1-i;\n            (bidderAddresses[i], bidderAddresses[j]) = (bidderAddresses[j], bidderAddresses[i]);\n        }\n        \n        uint[] set_union;\n        \n        for (i=0;i<len;i++){\n            uint idx = bidderStructs[bidderAddresses[i]].index;\n            if (set_union.length == 0) {\n                winnerAddresses.push(bidderAddresses[i]);\n                set_union.push(idx);\n            }\n            \n            else {\n                uint flag = 1;\n                uint k;\n                \n                for (k=0;k<set_union.length;k++){\n                    if (vals[set_union[k]][idx] == 1){\n                        flag = 0;\n                        break;\n                    }\n                }\n                \n                if (flag == 1){\n                    winnerAddresses.push(bidderAddresses[i]);\n                    set_union.push(idx);\n                }\n            }\n        }\n        return winnerAddresses;\n    }\n}",
  "sourcePath": "/home/user/Blockchain/auction/contracts/Auction.sol",
  "compiler": {
    "name": "solc",
    "version": "0.4.24+commit.e67f0147.Emscripten.clang"
  },
  "schemaVersion": "2.0.1",
  "updatedAt": "2018-09-23T19:19:15.303Z"
}